:020000021000EC
:10B0000000800020D9B1010015B2010017B2010083
:10B010000000000000000000000000000000000030
:10B0200000000000000000000000000019B2010054
:10B0300000000000000000001BB201001DB2010072
:10B040001FB201001FB201001FB2010025DB010089
:10B050006DE00100000000001DF901001FB20100B9
:10B060001FB201001FB201001FB201001FB2010098
:10B070001FB201001FB201001FB201001FB2010088
:10B080001FB20100B9E601001FB201001FB20100AA
:10B0900075E701001FB201002DF001001FB2010091
:10B0A0001FB201001FB201000000000000000000FC
:10B0B0000000000000000000000000000000000090
:10B0C00010B5064C2378002B07D1054B002B02D07E
:10B0D000044800E000BF0123237010BDCC2A0020EB
:10B0E00000000000D8FC010008B5084B002B03D07D
:10B0F0000748084900E000BF07480368002B03D059
:10B10000064B002B00D0984708BDC0460000000049
:10B11000D8FC0100D02A0020CC2A0020000000002A
:10B12000164B002B00D1144B9D46402292029A1AD6
:10B13000924600218B460F461348144A121A04F017
:10B14000F0FC0F4B002B00D098470E4B002B00D08B
:10B1500098470020002104000D000D48002802D06F
:10B160000C4800E000BF04F0ADFC2000290000F016
:10B17000C7F804F091FCC0460000080000800020E1
:10B180000000000000000000CC2A0020603F0020EA
:10B190000000000000000000704770470D4B0021C8
:10B1A0003F22197059709970DA701971597199713B
:10B1B000DA71197259729972DA721A735A73997331
:10B1C000DA7319745A749974DA741A755A759A750F
:10B1D000DA757047E82A00200848026803210A430C
:10B1E00002600749074A084B9B1A03DD043BC85815
:10B1F000D050FBDC05488047054800472405004047
:10B20000E0FC0100302A0020CC2A002021B20100FD
:10B2100021B10100FEE7FEE7FEE7FEE7FEE7FEE7FD
:10B220002C4A10B51378012B12D12B4B1B68180731
:10B230000ED12A4BF0211B68E024181C0840234241
:10B2400004D1274B1B680B4202D127E03028F8D0ED
:10B250001378012B0DD120490968080709D11F492E
:10B260000868F0210840402803D11D4800680842C2
:10B270001CD01378012B2BD1174B1B68190727D132
:10B28000164BF0221B681340A02B04D1144B1B68F3
:10B2900013421DD110E0D02B1AD1F7E71149124B00
:10B2A00019608021114B09021960D1E7C12180206A
:10B2B000C900C0054350DCE70D4B1A68012A04D0D1
:10B2C0000C4A1A601A68012AFCD10B4BC0221A6082
:10B2D00010BDC046E00F00F0E40F00F0E80F00F0F2
:10B2E000EC0F00F0DFFF07C004050040186C0040C1
:10B2F00000EC06407593000014EC064048DF7047F0
:10B3000008B58022314BD205D158B42903D1002190
:10B31000D15000F055FA2E4AA023DB0503219950A5
:10B320002C4920225A50A121C9005A5003F02CFD6B
:10B33000002801D003F0E6FC00200D21264A274B0F
:10B3400003F0CCFB002801D003F0DCFC48201021E6
:10B35000234A03F079F8002801D003F0D3FC00F071
:10B360000DFB00F07CFF00F0CFFB00F04BFA00F08B
:10B37000E3FA00F027F900F08BFA00F08DF900F005
:10B3800069F900F04DF800F021FA00F0B5FF032054
:10B3900001F076F8002801D003F0B4FC00F020FDA5
:10B3A00003F0A4FEFFF7F8FE00F052FA03F0D0F825
:10B3B00000F090FF002801D1FFF7EFFEFFF79EFF9E
:10B3C0000028F1D003F09EFCEEE7C0461C0500000B
:10B3D000140700000C050000182B0020EDEC010004
:10B3E000202F00200D4B00213F22197059709970B9
:10B3F000DA70197159719971DA71197259729972F9
:10B40000DA721A735A739973DA7319745A749974D5
:10B41000DA741A755A759A75DA757047002B002020
:10B4200070B59CB00EAC02AD00213822201C04F097
:10B4300078FB281C00210C2204F073FB104B656282
:10B440002B80022305AD2370062223820D4B01269B
:10B45000E27000212422281C6361A67004F061FBC5
:10B46000802300212B612E73201C00912A1C064B87
:10B4700000F060FF002801D003F044FC1CB070BD58
:10B4800003210000302A002095B4010008B5FFF721
:10B49000C7FF08BD08B5002808D1FFF7C1FF03208A
:10B4A00000F0EEFF002801D003F02CFC08BD08B529
:10B4B000002000F0E5FF002801D003F023FC08BDC8
:10B4C00075DF704776DF70477ADF70477CDF704743
:10B4D00008B503F017FC08BD08B501F02FF908BD49
:10B4E00008B5064B1888064B984206D01321FFF783
:10B4F000E9FF002801D003F005FC08BD382A002030
:10B50000FFFF000008B50388011C112B0AD01F2B78
:10B5100017D0102B1DD102F01DF9022819D1FFF709
:10B52000DFFF16E00B4B81881A88914202D101227D
:10B5300052421A8000F0E0FEFFF7A8FF02F00AF97D
:10B5400007E080880831FFF7BBFF002801D003F037
:10B55000D9FB08BD382A002038B5041C02F06AF86F
:10B56000201C00F0B3F9A588281C02F0D9F8238824
:10B5700001280AD1112B01D1FFF788FF201C01F00F
:10B5800091F8201C02F000F817E0022802D01D2BD1
:10B5900013D101E0112B02D0201CFFF7B3FF074BA2
:10B5A0001B88AB4203D10648211C01F039FA2388DD
:10B5B000112B02D1201CFFF7A5FF38BD382A00202F
:10B5C000703400207FB51D490422684604F0A0FABB
:10B5D00068461B4948221B4B03F0D8FC002801D0C9
:10B5E00003F090FB0021142201A804F09AFA022033
:10B5F000012101AA03F02AFD002801D003F082FBFB
:10B60000114803F037FD002801D003F07BFB01A8AF
:10B6100003F03AFD002801D003F074FB0B4803F05F
:10B62000F1FC002801D003F06DFB094803F0F4FCA5
:10B63000002801D003F066FB07B000BD64FB0100E9
:10B640001C360020B5F001004028002059B501004B
:10B65000D9B4010010B588B001AC201C00211C2217
:10B6600004F05FFAA0239B026360F0231B03A36036
:10B670000323237301235B42E38101232374054BDE
:10B68000201CA36101F040FF002801D003F03AFB29
:10B6900008B010BDD1B401001FB5112301A80D4998
:10B6A0000A220370FFF712FF002801D003F02AFBE3
:10B6B00002A8202303804023438006238380C823DD
:10B6C000C380FFF701FF002801D003F01BFB05B08A
:10B6D00000BDC04668FB01003DDF70473EDF70479C
:10B6E0003CDF704744DF70477047704770477047D2
:10B6F00010B500290ED0012951D12948294900222D
:10B7000003F068FA284803F0D5FA002847D003F080
:10B71000F9FA44E0254C201C03F0CCFA002801D0B3
:10B7200003F0F0FA1E4803F099FA002801D003F064
:10B73000E9FA20681C4B1E4C1968221C03F0C4FA5D
:10B74000002801D003F0DEFA00F0C4FD23680028D1
:10B7500012D0184A934209D9B220FFF7C3FF00283C
:10B7600001D003F0CFFA00F0B9F818E0124A934282
:10B7700015D9FFF7BCFF12E0104A934204D900F03C
:10B780000FFAFFF7ADFF0AE00A4A934202D9FFF72A
:10B79000ADFF04E0084A934201D9FFF7A6FF10BDB0
:10B7A00074360020FFFF00006C3600206836002051
:10B7B00064360020E8FD0000DC0500000071020096
:10B7C000014B01221A7070477036002007B5002324
:10B7D00001A80193FFF780FF019B012003420ED0D7
:10B7E000074B1B78002B0AD1FFF778FFB220FFF739
:10B7F00079FF002801D003F085FA00F06FF807BD4B
:10B800007036002008B50E4801210E4A02F0B2FD44
:10B81000002801D003F076FA02F0F4FD002801D0F0
:10B8200003F070FAC021ED23A0228902DB00D205CB
:10B83000D15005480121054A03F0B4F908BDC046BE
:10B840003C2A00206606000074FB0100E9B60100F6
:10B8500038B500F03FFD0C4C051C237800280AD0B9
:10B86000002B03D100F074F90123237000F025FDB3
:10B8700000F080FB06E0002B04D000F069F900F036
:10B880002FF9257038BDC04694360020704700005F
:10B8900008B5044801F0ACF8002801D003F032FAF2
:10B8A00008BDC0468DB8010008B500F051F900F0A0
:10B8B00017F9FFF715FE00F059F800F05BF8FFF7F5
:10B8C000F6FD00F02BFD01F057FE08BD08B5011C88
:10B8D000014801F0F1F908BD983600201FB5042099
:10B8E00000F076FBFFF7E0FF0C2201A8002104F036
:10B8F00018F9034801A902F029FC05B000BDC046B3
:10B900009836002010B50A4803F0A8F9002801D0A5
:10B9100003F0F8F9074C2378002B03D003F08CFCDC
:10B920000023237003F0CAFC03F0B8FC10BDC0462E
:10B93000C8360020E836002008B503F0C5FC012019
:10B9400003F0A6FC03F01AFD012003F095FD054865
:10B950000021054A03F026F9002801D003F0D2F9AE
:10B9600008BDC04678FB010005B9010008B503F029
:10B97000A5FC08BD08B503F091FC08BD30B50B4B24
:10B9800085B06A4631CB31C21B68094C1360002276
:10B990006946201C131C02F0DDF9002801D003F0D9
:10B9A000B1F9201C02F0BAFA05B030BD7CFB0100F1
:10B9B000442A002007B50222011C00920448054BCE
:10B9C00002F0A2F8002801D003F09CF907BDC046A0
:10B9D0008CFB0100E936002070B5164C164D15267B
:10B9E000321C002115482C6004F09BF80021321C09
:10B9F000201C04F096F801232373CF2363743F23A4
:10BA0000E37307232374201CC1232370FFF7D2FFA5
:10BA10002A681F232370D37B201C6370FFF7CAFFA3
:10BA2000212323702B68201C1B7C6370FFF7C2FF4F
:10BA300070BDC0464D370020B4370020E9360020E5
:10BA400010B54168031C0ABA42600078032838D850
:10BA50001C4C04F06FF8020C2016012222705A7858
:10BA600062700322A2709A78E27005221CE007221D
:10BA700022705A7862700922A2709A78E2700B22C2
:10BA800012E00D2222705A7862700F22A2709A780A
:10BA9000E270112208E0132222705A786270152297
:10BAA000A2709A78E27017222271DB78201C6371F1
:10BAB0000234FFF77FFF201CFFF77CFFA01CFFF77D
:10BAC00079FF10BD4D37002008B5044823230370CB
:10BAD000CF234370FFF76EFF08BDC0464D370020EF
:10BAE00008B500F0F7FB00280AD100F0E6FB0028BB
:10BAF00006D1044B23225870181C1A70FFF75AFF06
:10BB000008BDC0464D3700201FB5002110226846F1
:10BB100004F007F86946CC2202234A718022CB70D8
:10BB2000520503230B7102920B730B70074801231C
:10BB300000224B7001F0CAFE041E04D003F0E2F8AC
:10BB4000201C03F0DFF8FFF747FF1FBD8CFB01004F
:10BB500070B588B002AE012204AD3270022200231B
:10BB600006AC2A7068460322009301937370B37089
:10BB7000F37003936B70AB70EB700593227063707E
:10BB8000A370E3700793FFF75BFF301CFFF758FFCC
:10BB9000281CFFF755FF201CFFF752FF08B070BDAF
:10BBA000F0B59DB0FFF790FFFFF7D2FF894F04ADCE
:10BBB0002B1C3A1C03CA03C306AC231C41CA41C355
:10BBC00008AE0396331C03CA03C30AAE0296331CA5
:10BBD00003CA03C30CAE0196331C03CA03C30EAEE3
:10BBE0000096331C03CA03C310AB41CA41C312AB56
:10BBF00041CA41C30226281CFFF722FF76480138BC
:10BC0000C046C046C046C046C046C046C046C04604
:10BC1000C046C046C046C046F1D1201CFFF710FF09
:10BC20006D480138C046C046C046C046C046C04602
:10BC3000C046C046C046C046C046C046F1D108A86E
:10BC4000FFF7FEFE64480138C046C046C046C04605
:10BC5000C046C046C046C046C046C046C046C046B4
:10BC6000F1D10AA8FFF7ECFE5B480138C046C04698
:10BC7000C046C046C046C046C046C046C046C04694
:10BC8000C046C046F1D10CA8FFF7DAFE5248013891
:10BC9000C046C046C046C046C046C046C046C04674
:10BCA000C046C046C046C046F1D10EA8FFF7C8FE48
:10BCB00049480138C046C046C046C046C046C04696
:10BCC000C046C046C046C046C046C046F1D110A8D6
:10BCD000FFF7B6FE40480138C046C046C046C046E1
:10BCE000C046C046C046C046C046C046C046C04624
:10BCF000F1D112A8FFF7A4FE37480138C046C0466C
:10BD0000C046C046C046C046C046C046C046C04603
:10BD1000C046C046F1D1013E002E00D06BE73B1C6F
:10BD200014AD38332A1C42CB42C23B1C16AE403302
:10BD3000321C03CB03C218AC3B1C4833221C03CB80
:10BD400003C220371AAB03CF03C30B2303936B78D3
:10BD50001AAF053B6B707378281C033B73706378D4
:10BD6000053B6370AB78013BAB70A378013BA370DC
:10BD7000EB78053BEB70F378053BF370E378053B1C
:10BD8000E370FB78053BFB70FFF75AFE301CFFF7B2
:10BD900057FE201CFFF754FE381CFFF751FE0F48DA
:10BDA0000138C046C046C046C046C046C046C04630
:10BDB000C046C046C046C046C046F1D1039B013BC9
:10BDC000DBB20393002BC2D1FFF7C2FEFFF788FE60
:10BDD0001DB0F0BD94FB0100E8FD000018730100E8
:10BDE000F0B595B0FFF770FE04AEFFF7B1FE5F4A05
:10BDF000331C03CA03C306AD2B1C81CA81C308AC24
:10BE0000231C82CA82C30AAF03973B1C03CA03C325
:10BE10000CAF02973B1C03CA03C30EAF01973B1C38
:10BE200003CA03C310AF00973B1C03CA03C312AB82
:10BE300081CA81C30427301CFFF702FE4C48013839
:10BE4000C046C046C046C046C046C046C046C046C2
:10BE5000C046C046C046C046F1D1281CFFF7F0FDE1
:10BE600043480138C046C046C046C046C046C046EA
:10BE7000C046C046C046C046C046C046F1D1201CA0
:10BE8000FFF7DEFD3A480138C046C046C046C0460E
:10BE9000C046C046C046C046C046C046C046C04672
:10BEA000F1D10AA8FFF7CCFD31480138C046C046A1
:10BEB000C046C046C046C046C046C046C046C04652
:10BEC000C046C046F1D10CA8FFF7BAFD284801389A
:10BED000C046C046C046C046C046C046C046C04632
:10BEE000C046C046C046C046F1D10EA8FFF7A8FD27
:10BEF0001F480138C046C046C046C046C046C0467E
:10BF0000C046C046C046C046C046C046F1D110A893
:10BF1000FFF796FD16480138C046C046C046C046E9
:10BF2000C046C046C046C046C046C046C046C046E1
:10BF3000F1D112A8FFF784FD0D480138C046C04674
:10BF4000C046C046C046C046C046C046C046C046C1
:10BF5000C046C046F1D1013F002F00D06BE7FFF78C
:10BF6000F7FDFFF7BDFD15B0F0BDC04694FB010025
:10BF7000A0860100F0B58BB00190FFF7A5FD134B33
:10BF800002A8191C021C30C930C204AC0022227065
:10BF90006270A270E2700122626006AA1031151C64
:10BFA000C0C9C0C508AD5033291CC0CBC0C1019E5B
:10BFB000002E03D0FFF744FD281C03E0101CFFF700
:10BFC0003FFD201CFFF73CFD0BB0F0BD94FB0100D2
:10BFD00070B588B002AC051CFFF776FDFFF7B8FD21
:10BFE00068460323012203702270002304AA022161
:10BFF00043708370C37001936370A370E3706360D8
:10C00000117053709370D3700593069307931F2696
:10C0100004AA06AB012D0DD168464178013141706B
:10C020006178013161705178013151705A78013273
:10C030005A702EE0022D0DD1684681780131817051
:10C04000A1780131A1709178013191709A78013213
:10C050009A701EE0032D01D168460EE0042D18D120
:10C0600068464178013141706178013161705178E1
:10C0700001315170597801315970C1780131C17065
:10C08000E1780131E170D1780131D170DA78013293
:10C09000DA706846FFF7D4FC201CFFF7D1FC04A837
:10C0A000FFF7CEFC06A8FFF7CBFC4C480138C04692
:10C0B000C046C046C046C046C046C046C046C04650
:10C0C000C046C046C046F1D1013EF6B2002E9FD117
:10C0D00064200138C046C046C046C046C046C0467F
:10C0E000C046C046C046C046C046C046F1D11F2625
:10C0F00004AA06AB012D0DD1684641780139417083
:10C100006178013961705178013951705A78013A7A
:10C110005A702EE0022D0DD1684681780139817068
:10C12000A1780139A1709178013991709A78013A1A
:10C130009A701EE0032D01D168460EE0042D18D13F
:10C1400068464178013941706178013961705178F0
:10C1500001395170597801395970C1780139C1706C
:10C16000E1780139E170D1780139D170DA78013A9A
:10C17000DA706846FFF764FC201CFFF761FC04A836
:10C18000FFF75EFC06A8FFF75BFC14480138C046C9
:10C19000C046C046C046C046C046C046C046C0466F
:10C1A000C046C046C046F1D1013EF6B2002E9FD136
:10C1B0000B480138C046C046C046C046C046C046CF
:10C1C000C046C046C046C046C046C046F1D1FFF793
:10C1D000BFFCFFF785FC08B070BDC046307500009D
:10C1E000102700001FB5002303AA107051700548E6
:10C1F00000934821022301F003FF43425841C0B29B
:10C2000005B000BD442A00207FB50D4D6A460F32AF
:10C2100001241070231C0E1C0094281C482101F0DE
:10C22000EFFE031C0020834208D1231C281C482158
:10C23000321C01F001FF43425841C0B204B070BD4E
:10C24000442A002013B56C4607341020211CFFF748
:10C25000DBFF002802D02378002BF4D113BD08B5F2
:10C2600002206F21FFF7BEFF002825D003205421B4
:10C27000FFF7B8FF00281FD004204C21FFF7B2FFC2
:10C28000002819D005204121FFF7ACFF002813D06A
:10C290000720BF21FFF7A6FF00280DD00820E521C9
:10C2A000FFF7A0FF002807D00D20F321FFF79AFF2A
:10C2B000002801D0FFF7C6FF08BD13B56C46073450
:10C2C0000120211CFFF7A0FF002802D020780007E2
:10C2D000C00F16BD13B56C4607340120211CFFF7B3
:10C2E00093FF002802D020784007C00F16BD8ADFD8
:10C2F00070478BDF7047000010B5FFF7FAFF064864
:10C30000FFF7F5FF041E06D002F0FCFC082C02D05B
:10C31000201C02F0F7FC10BDECFB010008B5FFF794
:10C32000E8FF0823021C9A4301D002F0EBFC08BD91
:10C3300073DF7047F8B5041C0E1C0E20002C00D1D2
:10C340007FE0002A00D17CE03E4900250D703E4987
:10C3500006980B603D493E4B18600B1C83CA83C393
:10C3600083CA83C383CA83C3291C0722394803F0C5
:10C37000D8FB394B394A3A4F1A603A4A291C9A601D
:10C38000381C382203F0CDFB2378221C3B70A378A5
:10C390001032BB70E378FB7063787B703B1C10330A
:10C3A00003CA03C33B1C0833103A03CA03C33B1C34
:10C3B0001833083203CA03C3636A381CAB420ED178
:10C3C000A56A002D29D0284B284D8362A26A9D6062
:10C3D0009188AC46998017881F8000230FE0244B7A
:10C3E0007B62244F626A9F601188198091889980CE
:10C3F0008D42E5D293685B5D7B550135F8E78B4252
:10C4000005D29568EF5C6546EF540133F7E7231CCE
:10C410002C331A78031C2C331A70276A002F06D08D
:10C42000154B0362226A5188598012881A8061680C
:10C43000002903D0114B436064684460311C00F054
:10C44000B3FFF8BDC8380020FC3700202C3800208E
:10C450002038002024380020743800205038002074
:10C46000B8370020A8380020D038002084380020B9
:10C47000F037002000380020CA3800207038002033
:10C48000F0B57D4D87B0287000236846009301F019
:10C49000DDF9082805D0002809D10098002806D128
:10C4A0000AE0684601F0C4FF0028F6D004E0734BB0
:10C4B00001221A700020DDE0714F0021381C072294
:10C4C00003F02FFB6F4C6378002B02D1A378002B75
:10C4D00002D02B78012B05D0A378002B0DD02B7820
:10C4E000022B0AD1684B694A1B68002B04D001213A
:10C4F00008201170984700E013702B78012B0CD1A5
:10C500006378002B07D00023FA185278002A04D150
:10C510000133062BF8D102232B702B78022B0CD180
:10C52000A378002B07D00023FA185278002A04D1F0
:10C530000133062BF8D103232B70237B002B04D16E
:10C540002B78032B01D104232B70237E002B05D1E4
:10C550002A78042A02D14E4A2B7013704A4E4D4A53
:10C560003368002B0FD02978033901290BD82178A3
:10C57000002908D048490978002904D10121072061
:10C580001170984701E000231370684600211822BB
:10C5900003F0C7FA28780138032841D803F0CAFA13
:10C5A0000209132901236A461370394A019713704F
:10C5B00036E0684601230370A368019743826368ED
:10C5C000022203822AE063696A465382226968462E
:10C5D000324B02821A79002A02D11A7B002A06D035
:10C5E0002278002A03D02C4A1178002929D003226E
:10C5F00014E0E3696A461382226A6846274B428246
:10C600001A79002A02D11A7B002A06D02278002A41
:10C6100003D0214A1178002920D004221C4B1A7023
:10C620002B78002B07D13368002B00D142E7184A42
:10C63000107898473EE76846FFF77AFE0028F2D068
:10C6400018E0022268460272154803930423C3705F
:10C6500000F0AAFE05220028E0D00BE00222684686
:10C6600002720F4803930423C37000F09DFE06225C
:10C670000028D3D007B0F0BDC8380020C93800204A
:10C68000243800202C380020FC370020A33800205C
:10C69000DC380020A43800201F3800207438002027
:10C6A000B837002008B50388112B0AD01B2B12D0F5
:10C6B000102B36D1837D012B33D18288194B1A8000
:10C6C0002FE0194B00221A70164B82881B8801201C
:10C6D0009A4226D113E0037A002B22D1134B18780B
:10C6E000013803281DD803F025FA0204061402209D
:10C6F00005E0032003E00E4B03221A700420FFF72D
:10C70000BFFE00280DD00B4B1B68002B09D09847AB
:10C7100007E0074B00201870074B1B68834200D0CE
:10C72000984708BD4C2A00201F380020C838002038
:10C73000DC38002020380020FC370020023808B503
:10C74000012810D8084B1A78002A0CD000221A7041
:10C75000064B1878FFF794FE002804D0044B1B68A2
:10C76000002B00D0984708BDC9380020C8380020E9
:10C770002038002090DF704792DF704793DF7047CA
:10C780000B4B70B51C680023A3420FD0094A9900D7
:10C790005518AE788578AE4206D1895A0288914202
:10C7A00002D1054B186802E00133EDE7002070BDAF
:10C7B000E43A0020C83A0020E038002030B5D32306
:10C7C0005B00C35C151C4622534395B0C0180C1C7B
:10C7D000FFF7D6FF021E05D001A801214580017098
:10C7E0004460904715B030BDF0B5D32385B00392B7
:10C7F00002915B00C65C462256438619301CFFF747
:10C80000BFFF019000282ED0184D2C68052C2AD887
:10C8100050276743164B039AD8194280311C462291
:10C82000043003F075F9029A114E5023002A01D00A
:10C83000002200E002226343BA55019A0D4FF3181B
:10C84000DA643B6801342C609C420CD100243B68C4
:10C850009C4206D2502060433018C36C9847013484
:10C86000F5E700232B6005B0F0BDC046C43A0020B8
:10C87000E4380020E43A002013B5D3225200825C51
:10C88000031C46204243A620FF301C5C9A1801ABD3
:10C89000002C07D0013C0C20E4B244431419608AF8
:10C8A000013000E0D08818801289081C191C5A80B9
:10C8B000FFF762FF16BD0000F8B5D4225200835C7A
:10C8C000041C0133DBB28354184A0D1C1268002685
:10C8D000934223D2A623FF33C654D3235B00C15C0B
:10C8E00046270131C9B24F43C154114BC7198900C2
:10C8F00059180422381C03F00BF901213E71281C41
:10C900003A1CFFF737FF011EB1420ED0A823FF33B8
:10C91000E654201C2A1CFFF751FF02E0A823FF3336
:10C92000C654044B03221A705D80F8BDE43A00201F
:10C93000C83A0020E4380020F0B5D32385B0019236
:10C940005B00C35CA62700934622FF375A43C35DB2
:10C950000C255D4382185C1CA446147955190A35D0
:10C96000A44513D128891289904203D101230B7069
:10C9700000203AE003AB0130188023E0A627FF3700
:10C98000C55D01330135C555DBB2251C1479A342C1
:10C99000ECD2013CA3421DD05E1C0C277E439419AF
:10C9A0000A342D89002C17D14626371C009E774368
:10C9B000BC46844467463F89BD42DFD003AB0135A6
:10C9C0001D803A1C5A8000230B70019803A9FFF7C1
:10C9D000D5FE0AE00024E4E7E6880135B542CDD073
:10C9E00003AB321C1D80013AECE705B0F0BD00003E
:10C9F00000280BD0064A00231360064A012111705B
:10CA0000054A1360054A1060181C00E00E207047AC
:10CA1000E43A0020E03A0020C43A0020E038002048
:10CA2000F0B5041C87B00D1C002800D103E10029DB
:10CA300000D100E1814B1B78002B00D1FBE00B887B
:10CA4000302B0AD003D8112B00D1EAE0F3E0322BCF
:10CA50002CD0332B00D195E0EDE0D5225200D3232A
:10CA60008988825A5B00C35C8A4200D0E3E0EE888A
:10CA7000002E19D146275F43291CC7190E31042205
:10CA8000381C03F045F8291C12310422B81D03F0AC
:10CA90003FF8A988201CFFF7EFFE011E00D1CAE075
:10CAA000A823FF33E65463E00021B3E0D5235B0005
:10CAB0008A88C35A9A4200D0BDE0D323CA885B005B
:10CAC000C35C002A0FD0A623FF3300276E46E7542D
:10CAD0001736311CAA88201CFFF72EFF011EB94211
:10CAE00000D191E08CE046265E43861931792B7B9C
:10CAF0000191CB18052B00DD0523019A33710C231E
:10CB00005343F31803930027019A3379B9180C2281
:10CB1000994211D27A43039B9A180292101C0A225E
:10CB2000111C794369180E310A3002F0F1FF0299A5
:10CB300000238B820137E7E701394A43B618D32235
:10CB40005200A25C462050432018718A028991420B
:10CB5000B9D2052BB7D0A622FF32A354A988201C36
:10CB6000FFF78AFE011E66D0A8230022FF33E2549D
:10CB7000AA88201CFFF722FE314B03221A70AA88D4
:10CB80005A8058E0D5235B008A88C35A9A4252D112
:10CB9000D3235B00C35C46225A43A621EB88FF31B6
:10CBA0008218465C002B13D1A889834210D206213B
:10CBB00059436F183F8ABC46224FBC4506D10C230F
:10CBC0005E436918CB899619B38201E00133ECE723
:10CBD0006E4617360027A6213770FF31635C127945
:10CBE0000133934202D1012333700DE0A622FF32BC
:10CBF000A354311CAA88201CFFF79EFE011E03D0FF
:10CC0000A823FF33E754B3E73378002B13D0AA8867
:10CC1000201C0121FFF7E8FDA988201CFFF74CFE2E
:10CC200009E0D5235B008A88C35A9A4203D1A8231E
:10CC30000022FF33C25407B0F0BDC046E03A0020E6
:10CC4000E438002002290000A5DF7047A6DF704706
:10CC5000A8DF7047F0B5061C87B0002823D00788EE
:10CC6000124B08209F421FD0114B1B78002B1BD06A
:10CC7000104D02AC1023697068460321C180AA7070
:10CC8000201C1A1C00212B7002F04BFF338A381C29
:10CC900023800123A37006236B44211CA360E5605D
:10CCA000FFF7D4FF00E00E2007B0F0BDFFFF00004B
:10CCB000E83A0020E93A0020F0B5041C89B00E1CC7
:10CCC000002800D1B7E0002900D1B4E0826A002A30
:10CCD00000D1B0E00B88112B18D004D8102B00D055
:10CCE000A9E08B8814E0502B02D0512B12D0A2E087
:10CCF000C9880389994200D09DE004A908230B70DC
:10CD0000338A12360B724E60904794E001235B42E7
:10CD1000238090E08A79022A00D08CE00A89038A75
:10CD20009A4200D087E08B7B043B022B00D882E044
:10CD300004AFBA7901210A4302233B70BA71328AE7
:10CD400001AD3A81728A00887A81321C1432FA600D
:10CD50000022019200AA6A60A18A2A1C2B80FFF798
:10CD600073FF002804D0E36A002B0BD0984709E03A
:10CD70006B4601331B7869460A781B021343012274
:10CD8000134207D1FE23FF332088391CBB80FFF7F5
:10CD90005FFF4AE0B880391C2088FFF759FF002860
:10CDA00043D1317D481E07283BD802F0C3FE040E54
:10CDB0001B1D1F21382300232B70738A012B02D8DF
:10CDC000201C012108E0012308E001232B70728A56
:10CDD0009A4203D8201C0221062224E015362B7229
:10CDE0006E6017E0022314E0032312E0042310E036
:10CDF00005230EE0738A022B02D8201C082111E0C3
:10CE0000B37D727D1B021343AB8001D1072300E089
:10CE100006232B70A36A201C291C98470BE00923CA
:10CE2000F7E7201C0322FFF715FF002803D0E36A71
:10CE3000002B00D0984709B0F0BD71DF704772DF5A
:10CE4000704779DF70477DDF704765DF7047F0B569
:10CE500089B001930EAB10CB061C1B8820880025DF
:10CE600004910392059302902F1C33889F423BDA72
:10CE70007268B900511807A8042202F049FE6946F9
:10CE800007A81B310022FFF7E0FF00283BD16846CE
:10CE9000C37E03998B4223D16A426A4123885200A0
:10CEA000591805988A1882421CDC002D08D10133DC
:10CEB000049A01999BB22380CA54238801332380AA
:10CEC0006D462288019B1B359A1807A8291CFFF77D
:10CED000BCFF002817D12A7823880125D318238086
:10CEE0000137C2E70C200EE0002085420BD02388DA
:10CEF0000298013B1B1A9BB20C20FF2B03D801990F
:10CF0000029A00208B5409B0F0BDF7B51C1C08AB89
:10CF1000171C04CB051C1E88009201960222231CBC
:10CF2000FFF795FF002808D1089B01960093281C65
:10CF3000391C1022231CFFF78AFFFEBDF0B5002329
:10CF400016881380436B89B0071C0D1C141C0496B3
:10CF5000002B13D01A78022E00D8E4E102230B70C4
:10CF60002388112101339BB22380E95423880133A4
:10CF70009BB22380EA542388013323803A6B002A32
:10CF800005D13B1C2E331978002944D01EE023889C
:10CF9000049E191C1231B14200D9C4E11121E95497
:10CFA0002388102101339BB22380E9542388013365
:10CFB00023800023D118C87B2188013B6854218835
:10CFC000181C013121801030F4D1DAE72388049E47
:10CFD000DA1CB24200D9A6E10222EA5423881C20BE
:10CFE00001339BB22380E8542388013901339BB27B
:10CFF00023800720032900D9CEE1081C02F09AFD06
:10D0000002040706002202E0012200E00322EA54A3
:10D010002388013323803B1C2D331B78002B03D145
:10D02000BB78002B4FD02DE02388049E09330C20C1
:10D03000B34200D9B0E106AE301CFFF7FEFE002877
:10D0400000D0A9E123880822EA5423881B22013357
:10D050009BB22380EA5420886946013080B2208048
:10D0600006222818193102F053FD2388327806333E
:10D070009BB22380002A00D00122EA542388013386
:10D080002380CDE72388049E04330C20B34200D9CB
:10D0900082E106AE301CFFF7D4FE002800D07BE111
:10D0A00023880322EA542388192201339BB2238068
:10D0B000EA54238831885A1C92B2AA18117003339B
:10D0C000090A51702380FA78002A15D02388049E1B
:10D0D000D91CB14200D926E10221E954238801215B
:10D0E00001339BB22380E95423885B189BB22380D1
:10D0F000EA5423885B1823807B68002B16D01A78AB
:10D100002388049ED91CB14200D90CE10221E954C4
:10D1100023880A2101339BB22380E95423880133F9
:10D120009BB22380EA542388013323803B89002B60
:10D1300003D13B8A002B1AD00CE0049E381C0094CB
:10D1400001960830022106222B1CFFF7DEFE002884
:10D15000EFD021E1049E381C009401961030032189
:10D1600007222B1CFFF7D1FE002800D014E13B8BD7
:10D17000002B0CD0049E381C00940196183014210A
:10D1800015222B1CFFF7C1FE002800D004E13B6AEA
:10D19000002B45D02088049E021C063284460C20B9
:10D1A000B24200D9F8E018880390039907200529B6
:10D1B00000D8F1E0794E8A19794992B28A4200D8B2
:10D1C000EAE05A88052A00D8E6E09119744E89B23F
:10D1D000B14200D8E0E0734E0399B14204D0B242AC
:10D1E00002D0914200D9D7E005226646AA5522888E
:10D1F0001221013292B22280A9542288511C89B294
:10D200002180188869180870000A4870D01C80B204
:10D21000208059882B1819700532090A597022800C
:10D220007E6A002E30D0B3882288191D89188C465A
:10D2300004990C208C4500D9AEE0991CFE2900D938
:10D24000AAE00333AB542388FF2201339BB223802F
:10D25000EA5423885A1C92B222803188AA180333D8
:10D2600011709BB2090A51702380B288002A0BD03A
:10D27000B1680720002900D18EE0E81802F048FCD0
:10D280002288B388D31823803B1C2C331B78002BB7
:10D2900004D13A78002A3DD1101C7DE0BA6A002AF8
:10D2A00000D178E0002605963B1C2C331B78059EA8
:10D2B000B342EED9059E0C204643B96A8E19B38855
:10D2C0009A1CFE2A68D822880333AB54238816227E
:10D2D00001339BB22380EA542088431C9BB22380F5
:10D2E0003288EB1803301A7080B2120A5A7020800C
:10D2F000B288002A09D0B16800294CD0281802F061
:10D3000007FC2288B388D3182380059B0133DBB246
:10D310000593C9E73B880720012B3DD02388049E55
:10D32000981CB04201D90C2036E0012A05D17A7848
:10D33000049E0232D218B242F5D8049A06AE023ADE
:10D34000D31A9BB22818311C04933380FFF77BFD5E
:10D35000002821D13B78022B05D13288049909237A
:10D360008A4209D905E0012B03D17B78049A9342C4
:10D3700000D9049B338008233288FE2AD3D8218821
:10D3800001326A542188013189B221806B5423888B
:10D39000D218228000E0072009B0F0BD7FF3FFFF24
:10D3A0007DF30000FFFF0000F0B593B06E461F2331
:10D3B00001AD06360C1C2B803380002804D0C378C6
:10D3C0005A0711D407201FE02880071C002C03D027
:10D3D000E378002BF6D10FE03480221C29783378D3
:10D3E000381CFFF72CFD0FE002A92A1CFFF7A6FD51
:10D3F00002AF0028EAD007E0321C201C0AA9FFF780
:10D400009DFD0AAA0028E9D013B0F0BD75DF704772
:10D4100076DF70477ADF70477BDF7047174B37B591
:10D420001888174B984227D0164B174D1A782C1C8A
:10D430000132D2B21A70297B914208D31349FFF707
:10D44000E5FF002818D0AB69002B14D114E00022AE
:10D450001A702B7C934208D03B21FFF7D9FF00289C
:10D4600003D0AB69002B00D098476369002B03D031
:10D4700001A800220270984737BDC046383B002003
:10D48000FFFF0000FA3A0020FC3A00203A3B00205F
:10D4900037B5174B174A5B881188174C174D9942BF
:10D4A0000CD852889A4209D36369002B03D001A893
:10D4B00001220270984700232B7037BD2B78002B78
:10D4C00005D06369002BF6D001A80022F1E70C4BD0
:10D4D0001B78002B01D1616800E0A1680948002297
:10D4E00001F078FB0028E6D0A369002BE2D1E2E747
:10D4F000F23A00203A3B0020FC3A0020F03A0020AB
:10D50000FA3A0020183B002070B51449021C0B1C8D
:10D5100070CA70C332CA32C31268114C1A600168F3
:10D52000104B00221A70201C914213D0082202F0E6
:10D53000EFFA201CFFF76EFF00280ED10A4B0122E4
:10D5400052421A80094B0021094A0A48197001F019
:10D5500029FB02E0FFF760FFEEE770BDFC3A002018
:10D560003A3B0020F03A0020383B0020FA3A0020F5
:10D570001DD40100FCFB010008B5024801F06EFB60
:10D5800008BDC046183B002010B50388112B19D0E8
:10D5900002D8102B05D041E0122B37D0502B20D0D1
:10D5A0003CE082881E4B011C1A80183108221D485D
:10D5B00002F0AEFA1C4B00221A701C4BDB8993421E
:10D5C0002CD129E0164B012252421A80164B002220
:10D5D00017481A7001F042FB00281FD0134B9B69BB
:10D5E00010E0124CC188E289914217D1038A022BC4
:10D5F00014D1837CDA070FD40D4801F02FFB0028EB
:10D600000CD0A369002B09D0984707E0011C083112
:10D610000448082202F07CFAFFF73AFF10BDC0462A
:10D62000383B0020F23A0020FA3A0020FC3A002071
:10D63000183B0020F0B5038889B0041C112B42D0A0
:10D640001A2B46D0102B64D1334D03A86B7D2A7D55
:10D65000291D9A4301F01BFC0026039B9E420DD21C
:10D66000730003AAD318291C00229B88281D00924E
:10D6700014311D2201F0CEFB0136EEE7287DA7888C
:10D68000C043C0B201F0B6FB244B98423ED04000EC
:10D690002E1D2818291C87801531301C3A1C0123A7
:10D6A00001F0DBFB291C301C14313A1C012301F072
:10D6B000D4FBA37D291C023B584243411631A2886A
:10D6C000DBB2301C1FE01449A288081D002315316D
:10D6D00019E0267A1F27B742B6410F4D7642012343
:10D6E0007642291C3340A288281D1731DBB201F095
:10D6F000B4FBA288247A2F23A3429B41291C5B42BE
:10D70000281D1831DBB201F0A8FB02E0042001F073
:10D71000F9FA09B0F0BDC046443B0020FFFF00000D
:10D7200070B50B4C051C261D217D301C2A1C01F0F8
:10D730009CFB031C0020834208D0A17D301C2A1CC6
:10D7400001F093FB434243410220C01A70BDC04622
:10D75000443B002008B5034B5A7D987D104001F0F2
:10D76000ACFB08BD443B0020114B30B51C680823BE
:10D7700065071AD5002815D0002A13D00368002B9E
:10D7800012D10C4C2568002D0ED0258940686943C4
:10D7900009186089454360682D18A94204D21360B6
:10D7A000516002E00E2300E00723181C30BDC04684
:10D7B000503C0020443C0020F0B5161C214A85B0A6
:10D7C000126802900D1C0824500738D5002931D06A
:10D7D000029900292ED02C68002C2DD11A4F3A68BE
:10D7E000002A29D0398978896A684843844678684C
:10D7F0008444624520D2002E1ED08E421CD8F018E0
:10D80000884219DC02980321084217D10B4215D136
:10D810001140039112D19918321C02F079F929684C
:10D820000C234B430096FE58281C0221039A029BAE
:10D83000B04704E00E2402E0072400E01024201C7E
:10D8400005B0F0BD503C0020443C0020074B1A6856
:10D850000823510707D5002804D0054B5B780360E7
:10D86000002300E00E23181C7047C046503C0020E7
:10D87000783B002073B5A323DB00C2586B46D2B2BD
:10D88000DA710A7F0C7D0733944202D91B780C6948
:10D89000A3540B7F0D7B0133DBB25A1C0B77AA42DA
:10D8A00005D28B689A5C084BC25001200BE00C7DBE
:10D8B0000126A24201D2CA7EF5E7301CAB4202D358
:10D8C000A3428041404276BD1C050000F7B5437974
:10D8D0004C4D041C58012D182E7E0820002E00D01F
:10D8E0008FE0002902D148491B01C9182A600F7B2B
:10D8F000A02301260878DB05B74204D88640301CF7
:10D90000424E985103E0A1278640FF00DE5108787F
:10D910000127C130FF3080001F504878A026F6054F
:10D92000FF2809D0394B8740F750E0277F00C31903
:10D930009B0003279F5101E0012040428B78FF2B81
:10D940000AD09C46E0235B001E1C6644A023B60060
:10D950000027DB05F75002E001235B429C46CB78B1
:10D96000FF2B0CD001279F40A126A023DB05F6004A
:10D970009F51CE780327C136FF36B600F750637942
:10D98000204ECF785B01F3189F760F782368A1268D
:10D99000F6009F511D4E01979851A2206746C00086
:10D9A0001F508E681A481E50487B164E471EB841BD
:10D9B0000F7B022F05D0032F05D0012F05D10227A1
:10D9C00002E0042700E006273843124FD851677958
:10D9D00048797F01F619F076002A03D0C120042689
:10D9E00080001E50A0200126C0001E50002A04D036
:10D9F00004202056097901F04DFE002001236876AD
:10DA00002B76FEBD543C002000FC01000C050000FC
:10DA10002405000054050000F0B585B0019044795C
:10DA2000364B64011C19637E1120002B64D12068E1
:10DA30008446002804D014231A4201D101236376BE
:10DA4000251C083503950E1C89CE89C5366802272A
:10DA500002962E60637F0126B343BB436377A37EA8
:10DA6000FF2B05D09E40331C254FA026F605F35111
:10DA7000002A03D00023637606203DE0019FC223E5
:10DA80003D6804269B002277EE502E1CFC36F26087
:10DA90000B79002B02D00868027800E0E27E194B77
:10DAA000EA500A79012A02D90A68527803E00A7B0F
:10DAB000012A01D9E27EEA506346002B0DD0C12332
:10DAC00004229B00EA50002016E00023F360281C8B
:10DAD000211CFFF7CFFE002803D0F368002BFCD0F9
:10DAE000F3E7A37EFF2B07D001229A40131CA0214D
:10DAF000A122D200C9058B5005B0F0BD543C0020D6
:10DB00000C0500001C0500001FB506AC247802932C
:10DB10006B4600911A71694600221C73FFF77CFF67
:10DB200004B010BD10B50E4B0E4C0022211CDA6063
:10DB30000D48FFF79FFE211C002810D1A37EFF2B6C
:10DB400007D001229A40131CA020A122D200C005B8
:10DB5000835000234B760B71081D0B68984710BD4E
:10DB6000FC300040543C002000300040F7B59C469B
:10DB700008AB1E7809AB051C1B7808782C1C019398
:10DB8000FC3400284BD113780093A36A002B01D0FA
:10DB9000A06207E0276A002F1BD02362A76A002F2C
:10DBA00004D0A36201236B610B7033E01378B3429E
:10DBB00007D26046C15C1F4BE950137801331370E4
:10DBC00028E0019A0123002A01D0EB6131E06B616A
:10DBD00020E0E368002B1DD0E760A36A002B01D092
:10DBE000A762DFE71378B34214D2A321C9006958B2
:10DBF0006046C15413780133DBB21370721E934236
:10DC000004D1022280239340EA5001E0B34201D0C4
:10DC100001232B62009AB24205D0012009E00023C3
:10DC2000A3622362E360FC35AB68002BF5D00020D3
:10DC3000A860FEBD1C050000F0B585B003920A1C6B
:10DC4000FC321E1C00239360071D93621362D36095
:10DC5000C21DD377FB7780220123051C0C1C920088
:10DC60009E4202D10221A15000E08B50236223602A
:10DC70002B68002B07D00E4B0020AB60AA68C12395
:10DC80009B00E25012E00023291C2A1C01930096FD
:10DC9000201C23312632039BFFF768FF0028F2D1B6
:10DCA000FB7F03205A1E93415B42184005B0F0BD34
:10DCB00086020000F0B585B01F1C0AAB1B78161C4D
:10DCC0000A1CFC3203930023936093621362D360B7
:10DCD000802292008B500C1CC21D011DD377CB7784
:10DCE00001232362A360D17F051CB94206D2715C77
:10DCF000164BE150D37F0133D37705E0039A002A16
:10DD000001D0E36100E063612B68002B07D0104B6A
:10DD10000020AB60AA68C1239B00E25013E0039A85
:10DD2000291C01922A1C0097201C23312632331C07
:10DD3000FFF71CFF0028F2D10435EB7F03205A1EA9
:10DD400093415B42184005B0F0BDC0461C05000081
:10DD500086020000F0B5067928247443051C694842
:10DD600085B00419E01CC77F0820002F00D0C7E051
:10DD7000002902D164493601891922606360A21D1D
:10DD80000023A3600868D377621DD377A0238200A5
:10DD9000DB05D3180193019F5C4EE023DB00FE50AE
:10DDA0004A6800929700A022D205D219D6500126C7
:10DDB000371CB4468740A026A1200292F605C00079
:10DDC000009A37506746974037505148019E029F4E
:10DDD000F050F85004200138C046C046C046C04646
:10DDE000C046C046C046C046C046C046C046C04603
:10DDF000F1D10023A020A222C605D2004868B25863
:10DE00000127C24094466046424A384220D0002B47
:10DE100000D14CE04B6801209840A023DB059850CE
:10DE200004200138C046C046C046C046C046C04671
:10DE3000C046C046C046C046C046C046F1D14E6846
:10DE40000127A123A020B740DB00C005C7502EE06A
:10DE500008688740B75004200138C046C046C04615
:10DE6000C046C046C046C046C046C046C046C04682
:10DE7000C046F1D10E680120B040061CA027A120A9
:10DE8000FF05C0003E5004200138C046C046C046D1
:10DE9000C046C046C046C046C046C046C046C04652
:10DEA000C046F1D10133092B00D0A3E7B2E70F68D8
:10DEB000E020A0234000DE053B189800134B83515F
:10DEC000E02348685B009C46844402900F4B604608
:10DED000800083512B68A126F6009F51029E8F6817
:10DEE0009E5020680C4A9F50002805D02868097B66
:10DEF000000B40B201F0CEFB03340123E377002096
:10DF000005B0F0BD743C002010FC01000C060000C0
:10DF10000D0600000C0500002405000003792822EE
:10DF20005343054A0168D318A0220520D200885027
:10DF300003330222DA777047743C0020F0B587B0D3
:10DF400003920B1C0399061C02790620890753D102
:10DF500028245443294A316814190126C2227642E2
:10DF600092008E50621DD67F002E05D0A268C1237C
:10DF70009B00CA5011203FE0039DAE08371C0126CC
:10DF8000BE43D67708263540059535D1039F0C2032
:10DF90000019A761021C181CE0C8E0C29878621C36
:10DFA000D0775A68A71CE261587804978446B1205C
:10DFB0006546C0000D501E78B446012E10D00127D2
:10DFC00060463E1C002802D1039D6E093E4037404A
:10DFD000049E201CF7779B780097FFF76BFE06E006
:10DFE0000598049FF8779B78201CFFF725FE23688F
:10DFF000002B01D10534E37707B0F0BD743C00205D
:10E00000F0B587B003AC051C0F1C00920193201CD7
:10E010000CAB00210C221E7801F083FD019B281C13
:10E02000A370009B211C6360731E9E417201677088
:10E03000FFF784FF07B0F0BDF0B587B003AC051C57
:10E040000F1C161C201C00210C22019301F069FDFD
:10E0500001232370019B281C211C00226770A370E0
:10E060006660FFF76BFF07B0F0BD0000F0B52D4C08
:10E0700089B0661CF37FA51C0093EB7F211C0193E4
:10E08000221C2331E36926322748FFF76FFD26491A
:10E09000231C002843D1221DD27F0292002A1DD1C9
:10E0A000207B021C023A8446012A17D8E2692769BC
:10E0B000BA4213D1E37BA069F37786066269F60F53
:10E0C000EE776546E261032D04D10096201CFFF730
:10E0D000F1FD24E0201CFFF7AFFD20E01F1C0C37F2
:10E0E00005AE039734CF34C6029E04A8002E0BD091
:10E0F0000E4C0A590A5102210A4201D0012204E0C1
:10E10000570703D5017001E0029A02709C695A1DFD
:10E110000021D177640702D459681B68984709B079
:10E12000F0BDC046743C002000400040C404000024
:10E13000AADF704744DF704746DF704711DF704742
:10E1400013DF704700DF704770470000F0B50B78B1
:10E150008DB0002B00D08FE04C4C07886A4602320D
:10E160000823211C138034310123381CFFF7E0FF02
:10E17000474B1B68984701A8FFF7DEFF002801D036
:10E1800000F0C0FD019BB22B06D0B320FFF7D2FFF9
:10E19000002801D000F0B6FDFFF7D0FF002801D025
:10E1A00000F0B0FD3B4E7069FFF7CAFF002801D0B8
:10E1B00000F0A8FD384D0023381C291C029301F003
:10E1C00035FA2F1C002842D1281C06A901F0D4F9E9
:10E1D00000282DD10A9D0722291C1031201C01F096
:10E1E00097FC291C1022E01D01F092FC069D201CCA
:10E1F000291C1122183001F08BFC201C291C2A300C
:10E2000012310A2201F084FC201CFFF79BFF00283A
:10E2100001D000F077FD012302930423049302ABA5
:10E220000593381C002303A9039301F05FF90AE06A
:10E23000281C211C01F05EF9002801D000F062FDCD
:10E24000201CFFF77FFF002801D000F05BFD134B7F
:10E250008021C022C903520099501968002301226D
:10E260009A40114201D00E48C2670133202BF6D1EB
:10E27000706901F0F3FB07E001210322FEF7EAFCDD
:10E28000002801D000F03EFD0DB0F0BD9C3C002008
:10E29000502A002000100010D83C002000E100E0CF
:10E2A00004E100E070B50024164B1B78A34228D986
:10E2B000154BE5001B6801265D19144B2878311CAD
:10E2C0001A6881400A4219D08A431A6001F01CFB87
:10E2D0000F4A2B7812689E401640021C9A409642C4
:10E2E0000CD16A686978002A08D001394D42694129
:10E2F000091A48424141C9B2181C90470134E4B29E
:10E30000D2E770BDE43C0020E03C00200C3D002042
:10E31000083D0020F8B5134E071C301C00F09EFC91
:10E3200000281DD1104B01241A68BC401D1C22423C
:10E3300014D1381C01F0E8FA0C4B1A68002801D0FF
:10E34000224300E0A2431A602A68094B144319686B
:10E35000301C00222C6000F03DFC01E0A2431A605A
:10E36000F8BDC046E83C00200C3D0020083D0020E0
:10E37000DC3C002073B5051C0C1C161C0720042A6D
:10E380002FD901F00DFA00280DD0164B164A1D604A
:10E39000164B1C70164B013C1E6000231360154A7F
:10E3A000E4B2136016E001F0D1F90028EDD018E0D6
:10E3B00001A903220A70E3000022EB188A70CA70D8
:10E3C0009A7818784A700C4A01F0F4F9013CE4B2EA
:10E3D000002806D1FF2CEBD108480021084A00F0A4
:10E3E000E1FB76BDE03C0020083D0020E43C00203D
:10E3F000DC3C00200C3D002015E3010020FC010066
:10E40000A5E2010010B50024074B1B789C4208D2FE
:10E41000064BE2001B680121D05C01F031FA0134A7
:10E42000F2E7002010BDC046E43C0020E03C0020A4
:10E43000002804D0034B5B6D0360002000E0032044
:10E440007047C046103D0020032310B51340041C44
:10E450000720002B10D109480260481CC00080B280
:10E46000121807480260074A181C1370064A1370F6
:10E47000064A1480064A118010BDC046683D00203F
:10E480006C3D0020733D0020723D0020703D002057
:10E49000743D0020F0B5274B85B001921A8800909A
:10E4A0000C1C09208A4242D36E460F360025301CD0
:10E4B000357000F035FC204B204A1B781088DBB209
:10E4C0009C461F4B2A1C1978C9B2814201D24A1CB2
:10E4D000D2B21C4F3D1C624509D01D781978EDB2AF
:10E4E000C9B20022814201D24A1CD2B21A703078DD
:10E4F00000F034FC0420BD4219D0134BEE001B6821
:10E500009E19019B3360009B002B0ED0002C0CD079
:10E51000084B009918880D4B45431868221C401978
:10E5200001F0F6FAB480002001E00020B08005B0D0
:10E53000F0BDC046703D0020723D0020743D0020BB
:10E54000733D0020FFFF0000683D00206C3D00206F
:10E5500010B5104B10491A780978914219D00F491B
:10E560001A7818780C88C0B2D2B20021844201D93E
:10E57000411CC9B219700A49D3000968CB1809496E
:10E580000888094942430868998880181B68984799
:10E59000DFE710BD723D0020733D0020743D002078
:10E5A000683D0020703D00206C3D002010B5437890
:10E5B00082780133DBB2D21A541EA2415242134078
:10E5C00002789A4206D00B70437818225343406871
:10E5D000C01800E0002010BDEFF30582D205D20D77
:10E5E0000220002A26D0103AD3B259B200290DDAFF
:10E5F0000F221A40083A1049C240824052180321A3
:10E6000052680B408B40DA40131C08E08908C03187
:10E610000A4B8900CB5803210A408A40D340DBB221
:10E620009B09DBB20020012B04D0033B584243413D
:10E630000220C01A7047C04618ED00E000E100E07B
:10E64000194B80229202DA67D221184B80225202A3
:10E6500089005A50C22189005A5001225A602F2045
:10E660000138C046C046C046C046C046C046C04647
:10E67000C046C046C046C046C046F1D19A600C4B69
:10E6800000221A602F200138C046C046C046C0464E
:10E69000C046C046C046C046C046C046C046C0464A
:10E6A000F1D1044B1A70704704E100E00010014002
:10E6B000783D0020983D0020F8B5244B00225A6494
:10E6C0009A64DA641A655A609A60214B1B68934217
:10E6D0003AD020492048141C4558204909686D1A31
:10E6E0002D022D0A1A6895421AD3AD1AA4181A7C65
:10E6F000DE69002A10D000221A74194A5F69126874
:10E700009969002A06D0381C9047002804D000F0F0
:10E71000F9FA01E0081CB847002E01D0331CE1E7EC
:10E72000104B1978104B1A788A4205D10132D2B2B7
:10E73000022A00D100221A701A780C4B9200D45091
:10E7400080220B4B52035A60F8BDC046FC100140BA
:10E750007C3D00200405000000100140783D0020B1
:10E76000803D00208C3D00208D3D0020903D00200C
:10E77000FCE100E0F0B5B94AB94B1168B94889B07D
:10E78000059100781978884211D00131C9B2022967
:10E7900000D1002119701978B34B8900C858059C25
:10E7A000012503191B021B0A1360039501E00020D9
:10E7B0000390AE4B12681B6801920693AC4B1B781A
:10E7C0000493AC4B049C1B680293AB4B1B780793E0
:10E7D000069B013CE4B2FF2C2AD0029EE50075198D
:10E7E00029786A788A42F4D018224A436F68013146
:10E7F000BA18AF78C9B27E1A771EBE417742394047
:10E800001778022F02D0032FEBD10BE056681F1CA4
:10E81000B4461A1C002AE4D0624500D141E1171C1D
:10E82000D269F7E7002BDCD000221A74DB69F9E724
:10E830008E498A4D019F904A079C039E0B602F6072
:10E840001470002E06D1069FDB1B5A1E9341DBB2CB
:10E85000321C1FE00022141C002B19D01E68B0428D
:10E8600003D2301A0B60186013E0801BA419002635
:10E870001E60DE690296DE68002E07D0059FDA6111
:10E880003F193F023F0A5F609E601A1C029BE3E74C
:10E890000B60012309682D68039176490398096884
:10E8A0000595069174490978079104990139C9B20F
:10E8B0000491FF296AD00499069CCE00A619002A6B
:10E8C00002D0111CD26922E0317874788C42ECD0ED
:10E8D00018244C43756801312C19B578C9B23170D0
:10E8E0008D4200D1327027786168051C012F4BD111
:10E8F0000F7C002F48D1A5684D60E5688D602569C3
:10E90000CD6064698C61079C002C00D04F604D681D
:10E91000059C02952F1B594D3F023F0A8C68AF4260
:10E9200001D83C1909E0029D059F7F1B3D022D0A7D
:10E93000AC4201D9641B00E000240C6001250024D6
:10E940004C608C600D74CC61A0421CD00D680468D2
:10E95000A54202D98446041C09E0651B0560C86114
:10E9600011E0ED1BE769002F08D0A4463C1C276886
:10E97000BD42F6D87F1B2760271C64460D60CF611F
:10E98000051CE16100E00D1C281C98E7374A039E36
:10E990001060B04202D1002B00D17DE0002800D1F0
:10E9A00078E0374B374D2D495A590968364F561A7A
:10E9B00036020468360A387803360296002821D1D8
:10E9C0008020D1254002AD005851C125AD005851DD
:10E9D000C0262E488025AD027600855105600120B5
:10E9E00018602F200138C046C046C046C046C04609
:10E9F000C046C046C046C046C046C046C046F1D12B
:10EA000001203870029EA64200D2261C76183602DB
:10EA1000A820360AC0001B4F1E50DB59184C9B1A09
:10EA20001B021B0AB21A12020333120A934233D991
:10EA3000E35923502F200138C046C046C046C04687
:10EA4000C046C046C046C046C046C046C046C04696
:10EA5000F1D180220E4B92025A601DE0783D0020D9
:10EA60008C3D00208D3D0020903D00207C3D00200D
:10EA7000843D0020883D00208E3D0020FEFF7F0069
:10EA80000010014004050000983D002000E100E076
:10EA9000FCE100E0FFF7D4FD0E4B00221A7009B034
:10EAA000F0BD974209D1DB690093002B05D10A4BD9
:10EAB00001269E60009B079601931668D269B446B2
:10EAC000FA61002A00D18CE61668371C674417608B
:10EAD00087E6C0468E3D002000100140F7B50325B3
:10EAE00000900E1C141C019307202A4242D1224F91
:10EAF000002A01D13A603DE0FFF7A2FD1F4B0198CB
:10EB00001821186071431E4B3C601D70231C183384
:10EB10000022013D636022706270A6705B180834A9
:10EB20009542F5D1174B80221D60174BC0211D70F7
:10EB3000164B52031D70164B49005A50C5218900CF
:10EB40005858FF24A043C024204358501A6000980E
:10EB5000104AA121C9005050C42189005C580E48B8
:10EB60002040C0242402204358500C4B281CD2586B
:10EB70000B4B1A60FEBDC046883D0020803D002042
:10EB8000843D00207C3D00208C3D00208D3D0020F8
:10EB900000E100E000100140FF00FFFF040500005D
:10EBA000783D00200A4B10B51B68002B0CD0002AC2
:10EBB0000CD000280AD0036808201C7C002C06D149
:10EBC00059745A61201C02E0082000E0072010BDA3
:10EBD000883D0020F0B51D4B85B01E68041C0D1C3F
:10EBE0000192002E2FD000282DD0072004292BD9E8
:10EBF0006269002A27D0637C012B01D0002700E046
:10EC00000F1CFFF7E9FCC00030186E460F36311CB0
:10EC10000090FFF7CBFC031C0420002B14D0012232
:10EC20001A700B490B4A5C608A58DD609A60019A41
:10EC30001F615A613378009A002053708022064B7E
:10EC400052035A6000E0082005B0F0BD883D002066
:10EC50000010014004050000FCE100E0134BF7B593
:10EC60001F68041C0823002F1DD000281BD04269F8
:10EC7000002A18D000250574FFF7AEFCC600BE19A7
:10EC80006F460737301C391CFFF790FC0423A8425D
:10EC900009D0022303703B78446080227370044BD8
:10ECA00052035A602B1C181CFEBDC046883D002034
:10ECB000FCE100E0024A034BD35803600020704798
:10ECC0000010014004050000411A0902090A002051
:10ECD0001160704710B5041C082902D0002000F014
:10ECE00011F860682368984710BD000007B5044A12
:10ECF0000090019168460821FFF7CCFB0EBDC0468D
:10ED0000D5EC01001FB501AA0021906003481180D5
:10ED1000516000E000BF05B000BDC04601400000EA
:10ED200070B5EFF3108572B6094B012259680029BE
:10ED300008D15A60074A084CD66F26401E60D46737
:10ED4000017000E00270002D00D162B670BDC046B7
:10ED50009C3D002004E100E0FC06FFBC084B5A6823
:10ED6000002A0CD000280AD1EFF3108272B60549B0
:10ED700018680860002159608A4200D162B6704765
:10ED80009C3D002000E100E030B5144B144CA02164
:10ED9000A02200200325C900D20558501551EC24AB
:10EDA000AC4010510F4A15249C500F4C0F4A9C50F8
:10EDB0000122A124AC4052421A51A224AC401A5163
:10EDC0000B4A98509C589C5004225A50C1229200E1
:10EDD000985001229A601A6030BDC0460020004061
:10EDE000540700000C05000000509D0024050000A1
:10EDF0006C05000010B50023011C19419AB2CC0724
:10EE000004D40133082BF7D1014800E0101C10BDD9
:10EE1000FFFF000070B504AC257800281CD0002945
:10EE20001AD0002A18D000246600865B9E4210D1BA
:10EE30000123A340DCB2E343DBB28A1891420BD03A
:10EE40000878002D01D0204300E0184008700131FF
:10EE5000F4E70134082CE7D170BD13B5141C0093FE
:10EE60000122231CFFF7D6FF13BD10B500280DD0DB
:10EE700000235C00045B944204D1081C1841012269
:10EE8000104003E00133082BF3D1002010BD70B512
:10EE900000290FD000231C1C151C2541EE0705D5A9
:10EEA00065005E004D5B8619B58001330134082C86
:10EEB000F2D100E00B1C036070BD10B500231A1CDA
:10EEC000041C1C410121214001335218082BF7D1A9
:10EED000101C10BD52DF704710DF704760DF7047B5
:10EEE00061DF704708B500E000BF08BD224BF7B5F1
:10EEF0001B78002B3FD0214E0025326854425441EC
:10EF0000E4B2002D35D101A8FFF7E4FF05280ED0AB
:10EF1000002802D0FFF7F6FE0AE0019800F0AAFBF5
:10EF2000174B1B68002B03D00198984700E0012580
:10EF3000002C1BD1134B01A91B880B80124B1F689F
:10EF4000381CFFF7CDFF041E052C09D0002803D084
:10EF5000FFF7D8FE002404E0381C3368984700E02F
:10EF60000124002DCDD0002CCBD004E0002D02D107
:10EF7000C7E7002CDED0F7BD993D0020AC3D002056
:10EF8000A83D00209A3D0020A43D002038B5041C77
:10EF90000720002924D08D0722D112480160124990
:10EFA000201C0A80114A12491360FFF795FF041EC6
:10EFB00016D1104B01221A700F4AC5239B00D3585B
:10EFC000590201D40D480BE00D4B80215868C9034C
:10EFD000002804D01A68201C1143196000E0116059
:10EFE00038BDC046A43D00209A3D0020B03D002021
:10EFF000E5EE0100993D002000E100E00220000064
:10F000009C3D0020002803D0024B1860002000E047
:10F010000E207047AC3D0020002803D0024B186042
:10F02000002000E00E207047A83D002008B5064BE8
:10F030001B68002B05D09847002804D0FFF762FE1C
:10F0400001E0FFF753FF08BDB03D002070B5141C70
:10F05000051C0E1C101C0021142200F062FD01236F
:10F0600000222380227326726572954200D0A3721B
:10F07000002070BD034B82B00193019B002002B0C1
:10F080007047C046302A002007B5044B69460193FB
:10F09000019B0093FFF722FF0EBDC046302A0020DF
:10F0A00008B5002902D00020FFF72CFEFFF71EFF55
:10F0B00008BD000008B50020011C024AFFF7EAF96C
:10F0C00008BDC046A1F001007047000008B5054822
:10F0D000FFF7C4FD002801D0FFF714FE024B002209
:10F0E0001A7008BDB43D00200C3E002008B5104841
:10F0F0000021104AFFF756FD002801D0FFF702FE5D
:10F100000D4801210D4AFFF74DFD002801D0FFF702
:10F11000F9FDF0210A4809040022FFF75BFD0028F1
:10F1200001D0FFF7EFFD0748FFF7C4FD08BDC0465B
:10F1300024FC0100CDF0010028FC0100C9F0010011
:10F14000EC3D0020103E00200D4B00213F221970A5
:10F1500059709970DA70197159719971DA7119725F
:10F1600059729972DA721A735A739973DA7319743D
:10F170005A749974DA741A755A759A75DA757047F3
:10F18000D43D00201FB5002303AA1070517007481A
:10F1900000935A210223FEF733FF041E01D0FFF72C
:10F1A000B1FD60426041C0B204B010BD442A0020ED
:10F1B00013B5CBB20021021C009106485A21FEF77C
:10F1C0001FFF041E01D0FFF79DFD60426041C0B2E9
:10F1D00016BDC046442A002030B585B06C460D4DA2
:10F1E0000F34012320705A210093281C221CFEF7A3
:10F1F00007FF002801D0FFF785FD281C5A21221C9B
:10F200000123FEF719FF002801D0FFF77BFD2078CE
:10F2100005B030BD442A0020044B90221A70044BE4
:10F22000F5221A70034B80221A707047183E002096
:10F23000193E00201A3E002008B502200021FFF7E9
:10F24000A1FF08BD08B50D4B16201978FFF79AFFEE
:10F250000B4B17201978FFF795FF0A4B18201978E8
:10F26000FFF790FF084B19201978FFF78BFF074B2A
:10F270001A201978FFF786FF08BDC046153E00200A
:10F28000143E00201C3E0020163E0020173E0020A9
:10F29000014B18707047C046542A0020034B802150
:10F2A000A0224900D205D1507047C0460C0500008D
:10F2B00008B501200021FFF765FF08BD08B5012052
:10F2C0004021FFF75FFF08BD08B5274A274B2849B3
:10F2D0001A80A0238022DB0552005A500320E4212B
:10F2E00081405850A12181405A50FFF7E1FF002191
:10F2F0000220FFF747FF01210420FFF743FF002111
:10F300000520FFF73FFF00210D20FFF73BFF002105
:10F310000E20FFF737FF00210F20FFF733FF0021FA
:10F320001020FFF72FFF64211320FFF72BFF002190
:10F33000FD20FFF727FF0021FE20FFF723FF4A21D2
:10F340000C48FFF735FF0121FD20FFF71BFF0021CF
:10F35000FE20FFF717FF5B210748FFF729FFFFF7A4
:10F360005BFFFFF7ABFF08BD881300001E3E0020C7
:10F370000C05000087FC01002CFC010038B5FFF7EC
:10F3800097FF334CB5232370324B08221A70324B4F
:10F39000B9221A70314B3921314D19701620892349
:10F3A0002B70FFF7EFFE29781720FFF7EBFE21788F
:10F3B0001A20FFF7E7FE2B4B1B201978FFF7E2FE20
:10F3C000294B1C201978FFF7DDFE284B1D201978EA
:10F3D000FFF7D8FE07210120FFF7D4FE20211E20D1
:10F3E000FFF7D0FE0C200121FFF7CCFE20480138AA
:10F3F000C046C046C046C046C046C046C046C046DD
:10F40000C046C046C046C046F1D10C20FFF7E4FE1E
:10F410000128EBD01820FFF7DFFE0E4B18701920E3
:10F42000FFF7DAFE0C4B18701A20FFF7D5FE084BD9
:10F4300018700020FFF7D0FE0E4B0007C00F1870A9
:10F4400000210120FFF79EFEFFF738FF38BDC046C0
:10F45000173E00201C3E0020163E0020153E0020D6
:10F46000143E0020183E0020193E00201A3E0020C5
:10F4700050C300001B3E002010B5041CFFF718FF0E
:10F48000174B1C70FFF7DEFE06210120FFF77AFE06
:10F490000C200121FFF776FE12480138C046C04615
:10F4A000C046C046C046C046C046C046C046C0462C
:10F4B000C046C046F1D10C20FFF78EFE0128EBD0EC
:10F4C0000020FFF789FE0407FFF7F8FE064B8021B6
:10F4D000A022E40F4900D205E0B2D15010BDC046D1
:10F4E000542A002050C300000C050000004870475B
:10F4F00091800000194A031C127810B5081C002ADC
:10F5000028D0002B24D0002922D01C78002C21D117
:10F51000134A1268002A1DD09A78FF2A0AD15B7814
:10F52000FF2B19D00C214B430E49C9188B7A9A072F
:10F5300012D508E01C214A430B49022389188C7E0E
:10F540001C4009D11031072200F0E2FA201C04E02F
:10F55000064802E0064800E0064810BD203E0020B4
:10F56000083F0020383E0020443E00200E8000006E
:10F570000880000005800000F0B5244B8BB01B789C
:10F58000051C0C1C002B3CD0002838D0002936D09C
:10F590000378002B35D11E4A1268002A31D08278B8
:10F5A000062A30D81C2672431A498A18927EFF2AEE
:10F5B00029D0E360827803AF72438A182261164A29
:10F5C00063616260A3602760817801AA1348FEF737
:10F5D000CBF8002818D1381C01A9321C331CFEF7C7
:10F5E000EBF8002810D1E060AB780B495E43094B83
:10F5F00060619E1926616160A060276004E0084890
:10F6000002E0084800E008480BB0F0BD203E0020B2
:10F61000083F0020443E0020213E0020143F0020EF
:10F620000E800000088000001080000030B5002926
:10F6300012D00A78002A11D10A4B1B68002B0DD07A
:10F64000FF23094C8B7025890523854207D14A7019
:10F65000E37A8B70131C02E0044B00E0044B181C8F
:10F6600030BDC046083F0020383E00200E8000001C
:10F670000880000008B5002809D1054A5368002B0E
:10F6800005D01968002051605B689847F5E708BD10
:10F690001C3F0020F0B58901002815DAC4B20F2301
:10F6A0002340083B174A9B089B009B1803221440E9
:10F6B000FF25E200DE692C1C9440A6430D409540D6
:10F6C000321C2A43DA6112E00F4B82089200D218F2
:10F6D0000324C0239B00FF250440E400D6582F1CC0
:10F6E000A740BE430D40A540341C2C43D4501F23DB
:10F6F000184001238340181CC022034B520098502D
:10F700001860F0BD00ED00E000E100E0A023DB05A3
:10F710008000C018E023DB0010B5044AC458090477
:10F720002240C250C2581143C15010BDFFFFFCFF20
:10F73000054A012381005B428B50032802D912182D
:10F740002C3213717047C046283F002038B5124D47
:10F7500008202B1C35331B78002B1BD1EA18FF2106
:10F7600001331175202BF9D10024201C0134E4B29F
:10F77000FFF7DEFF052CF8D106200321FFF78AFFF3
:10F780008021C123054A9B000906D150353501234C
:10F790002B70002038BDC046283F0020006000408C
:10F7A000034B35331878431E9841C0B27047C046AA
:10F7B000283F0020F7B52F4D041C2B181B7D082077
:10F7C0007F2B55D9CF78002F02D10423052008E0E4
:10F7D0000023042005E09E00B446AE59013603D054
:10F7E00001338342F7D316E02819DEB2067560466E
:10F7F0002A50002F02D1EB182C331C718B78002B70
:10F800000BD0A023DB05A200D218E023DB00D058E8
:10F810000227B84309E004202AE0E0235B0048788F
:10F82000E218A02380009200DB05D050C8780A7847
:10F8300073B2002816D0104E9D00A223AD19DB0034
:10F84000E8580E4924020140F82040010440C0203D
:10F85000E95080021204E958024022430A43EA5068
:10F86000002005E0ED182C352B7992011A432A71FE
:10F87000FEBDC046283F002000600040FFE0FCFFC6
:10F88000F8B51F4A15182C7D63B2032B18DDD31869
:10F890002C331B799B09032B0BD1A222A021C90574
:10F8A000D2008A580121814011404A425141591ADF
:10F8B00003E0013B591E8B41991CFFF727FF1DE018
:10F8C000032C1BD80F489E003618A220C0003758C2
:10F8D0000124274337501E1C4036B6000948B6B2F3
:10F8E00000273750B94209D01421695689008A5837
:10F8F000BA4203D0C1229C4092008450F8BDC04659
:10F90000283F002000600040A223A022D205DB0097
:10F91000D358C340181C0123184070474A4BF7B511
:10F92000012200241968012908D1C1214748890012
:10F930004158114202D00021196014434449043354
:10F9400052008B42EED1434B00261A68012A08D19F
:10F950001E6080231B061C43A022A223DB00D205CD
:10F96000D658230706D1002C6CDA0122002352421C
:10F97000009354E0012700253C420DD0334AAB00F0
:10F980009918A222D20088588958334AC0048903A2
:10F99000C00E890F9B58984701357F00042DEBD18D
:10F9A000E1E7EDB2C0212C1C8C43E240D10749D5E0
:10F9B0001A19127DAD0952B29200D2580192002A52
:10F9C00035D00127A740032D02D1009A3A43009277
:10F9D000E0235B00E218A0239200DB05D3583740F8
:10F9E0009B039B0F002F25D1032B2BD1032D04D17B
:10F9F0000221201CFFF78AFE01270199002903D06C
:10FA0000201C291C019A9047002F1BD0A223A02262
:10FA1000DB00D205D358B34214D0009A1E1C0E4B03
:10FA2000191C34310D7869B20131BAD10AE0032DC5
:10FA300008D1C6E7022B05D1032D01D1291CD8E737
:10FA40000027DAE7F7BDC0460061004000600040D3
:10FA5000106100407C610040283F0020F0B5031C8D
:10FA6000186880F308885868FF2464B2EFF30585AE
:10FA7000002D01D1A6460047251C061C21273FBAB0
:10FA8000F0B40024002500260027F0B4F92040B28D
:10FA90000047C046F0BDC046084B10B5041C002B03
:10FAA00002D0002100E000BF054B1868836A002BDC
:10FAB00000D09847201C00F047F8C0460000000026
:10FAC000D4FC010070B50E4B0E4D0024ED1AAD10A4
:10FAD0001E1CAC4204D0A300F35898470134F8E749
:10FAE00000F034F8084B094D0024ED1AAD101E1C2F
:10FAF000AC4204D0A300F35898470134F8E770BD36
:10FB0000B82A0020B82A0020B82A0020C82A0020DD
:10FB100010B50023934203D0CC5CC4540133F9E701
:10FB200010BD031C8218934202D019700133FAE70A
:10FB30007047000002B4714649084900095C490059
:10FB40008E4402BC7047C046FEE7C046F8B5C046CA
:10FB5000F8BC08BC9E467047F8B5C046F8BC08BC67
:10FB60009E467047001002004A57425F64727569F2
:10FB70006E6F000074360020C83600200C000000B4
:10FB80000B00000000009801010000000030004060
:10FB900003000000003F000001000000013F1C00C6
:10FBA00001000000023F3F000100000003003F0091
:10FBB000010000000000003F01000000011F003FA5
:10FBC00001000000023F1A3A01000000033F0C3F11
:10FBD000010000000122003F01000000023F1C3A2A
:10FBE000010000000300000001000000010000000F
:10FBF000000000008001400000000000183B0020D1
:10FC0000020304FF03FF00000000004000000000AA
:10FC10000000000001000000000098010300000047
:10FC2000E83C0020B43D0020EC3D0020FF3F0941AE
:10FC30000830084108100841083F0200083F083F0B
:10FC400096410880643F024108BF64000241083FBA
:10FC5000084120240410103F08410880323F02412F
:10FC6000083F0800083FFF3F9100C83FFF3F114198
:10FC7000083F2A41083F5C41083F8E41083FC04190
:10FC8000083FFF3F254108FF000100040104040173
:10FC90000804010C040110020100240104240108DD
:10FCA00024010044011204011606011C0601226809
:10FCB000012A6A0134040138060138E6013EE201F6
:10FCC0004004014404014804014C0401500401545F
:08FCD00006430000582A002041
:08FCD80048B4FF7F01000000A9
:10FCE0000D18010014180100FFFF00001A010000A8
:10FCF000F1B601000040004000000000FFFF0000DE
:10FD000049E10100010000000000000000000000C7
:10FD100000000000000000000000000000000000E3
:10FD20000000000000000000D1FC01000000000005
:10FD300000000000000000000000000000000000C3
:10FD400000000000000000000000000000000000B3
:10FD500000000000000000000000000000000000A3
:10FD60000000000000000000E9B001009DB10100AA
:0CFD7000E5B3010049F10100C1B0010041
:040000031000B1D95F
:00000001FF
